:020000040040BA
:10000000783400206901400065014000650140002E
:1000100065014000650140006501400000000000EE
:10002000000000000000000000000000650140002A
:1000300065014000000000006501400065014000CE
:100040006501400065014000650140006501400018
:100050006501400065014000650140006501400008
:1000600065014000650140006501400065014000F8
:1000700065014000650140006501400065014000E8
:1000800065014000650140006501400065014000D8
:1000900065014000650140006501400065014000C8
:1000A00065014000650140006501400065014000B8
:1000B00065014000650140006501400065014000A8
:1000C0006501400065014000650140006501400098
:1000D0006501400065014000650140006501400088
:1000E000650140000000000000000000000000006A
:1000F000000000000000000010B5054C237833B963
:10010000044B13B10448AFF300800123237010BDEA
:100110003404002000000000780540000C4B43B17F
:100120000C480D4910B5AFF300800C48036823B9A3
:1001300010BD0A48036833B97047094B002BF7D04C
:10014000BDE810401847064B002BF5D0184700BFFC
:1001500000000000780540003804002078054000C9
:1001600000000000FEE7000008B5104B104A9A425C
:1001700009D00E4B0E4A03E01168196004330432B3
:100180000C498B42F8D30C4B02E000221A60043376
:100190000A4A9342F9D30A4A0A4B23F07F03936039
:1001A000094B9847094B9847FEE700BF0000002025
:1001B000780540003404002034040020740400203A
:1001C00000ED00E000004000C9034000890340004A
:1001D0004FF4A0621F4B1A60A3F5C0631B6A13F0B3
:1001E000807F07D11C4A1D4B1A621C4B9B6E13F07B
:1001F000010FFAD01A4A194B1A62184B9B6E13F46E
:10020000803FFAD0154A136B23F0030343F0010338
:100210001363124B9B6E13F0080FFAD0114A0F4B69
:100220009A620E4B9B6E13F0020FFAD011220B4B09
:100230001A630A4B9B6E13F0080FFAD01222074B79
:100240001A63064B9B6E13F0080FFAD0064A074B51
:100250001A607047000A0E400908370000040E407B
:1002600009083701013F1320000E27070000002076
:100270000021814211D282B00AE0019B0133019337
:10028000019A42F20F739A42F7D90131814202D2A8
:1002900000230193F4E702B070477047124A1369D4
:1002A00043F420731361114B5A6842F4C0625A60E0
:1002B0001A6F22F4C0621A675A6F22F4C0625A673A
:1002C000A3F500630C221A60A0221A60084A126883
:1002D0000849A1FB0212120D1A624FF400625A6023
:1002E00050221A60704700BF00040E40000E0E40FE
:1002F00000000020C5B3A291034B5B6913F0020F0D
:10030000FAD0014BD861704700060E4010B5044684
:1003100002E00134024B984720780028F9D110BD43
:10032000F902400010B58AB010B10246002415E071
:100330003020134B984721E0124981FB0231D3173B
:10034000C3EBA103184603EB83035900531A0AAA0F
:1003500002EB840242F8283C02460134002AEBDC1E
:10036000013C09E00AAB03EB840353F8280C30305E
:10037000C0B2034B9847013C002CF3DA0AB010BD21
:10038000F90240006766666608B5084B9847084B57
:1003900098470848084CA047FF20084B9847084852
:1003A000A0476420074B9847F3E700BFD101400006
:1003B0009D024000380540000D0340002503400029
:1003C0004C0540007102400070B50F4E0F4D761B7A
:1003D000B61018BF002405D0013455F8043B9847E7
:1003E000A642F9D10A4E0B4D761B00F0B3F8B610B9
:1003F00018BF002406D0013455F8043B9847A642A4
:10040000F9D170BD70BD00BF6005400060054000BF
:100410006805400060054000024B13B1024800F03F
:1004200005B8704700000000390440000023014671
:100430001A46184600F01EB838B50A4C0A4D641B1F
:10044000A4100AD004F18043013B05EB8305013C75
:1004500055F804399847002CF9D1BDE8384000F030
:1004600083B800BF7805400074054000704700BFA6
:10047000704700BF2DE9F8432C4D06462868984682
:100480000F469146FFF7F2FF294B1C68D4F848311C
:10049000002B3ED05A681F2A1CDC02F1010E76B1F7
:1004A00003EB82010124C1F88890D3F888019440BD
:1004B0002043022EC3F88801C1F8088123D00232FC
:1004C000C3F804E0286843F82270FFF7D1FF00204A
:1004D000BDE8F883174B0BB34FF4C870AFF300803F
:1004E0000346D8B1D4F848210260002141600A4691
:1004F000C4F848014FF0010EC0F88811C0F88C1103
:10050000002EDCD0CCE7D3F88C110C43C3F88C411F
:10051000D5E704F5A673C4F84831BBE72868FFF7B0
:10052000A7FF4FF0FF30BDE8F88300BF3004002084
:100530005005400000000000456E636F6465722046
:10054000706F736974696F6E3A2000000D0A0000C5
:1005500008000020F8B500BFF8BC08BC9E467047F4
:10056000190440001D014000F8B500BFF8BC08BCEC
:080570009E467047F9004000AF
:1005780000093D000000000000000000F402002017
:100588005C030020C40300200000000000000000FD
:100598000000000000000000000000000000000053
:1005A8000000000000000000000000000000000043
:1005B8000000000000000000000000000000000033
:1005C8000000000000000000000000000000000023
:1005D8000000000000000000000000000000000013
:1005E8000000000000000000000000000000000003
:1005F80000000000000000000000000000000000F3
:1006080000000000000000000000000000000000E2
:1006180000000000000000000000000000000000D2
:1006280001000000000000000E33CDAB34126DE66F
:10063800ECDE05000B0000000000000000000000D8
:1006480000000000000000000000000000000000A2
:100658000000000000000000000000000000000092
:100668000000000000000000000000000000000082
:100678000000000000000000000000000000000072
:0409A80050040020D7
:0400000500400000B7
:00000001FF
